:100000000C942A000C9447000C9447000C94470071
:100010000C9447000C9447000C9447000C94470044
:100020000C9447000C9447000C9447000C94470034
:100030000C9447000C9447000C9447000C94470024
:100040000C9465080C9447000C9447000C944700EE
:100050000C94470011241FBECFE5D8E0DEBFCDBF12
:1000600010E0A0E6B0E0E2EFFFE102C005900D92E3
:10007000A837B107D9F710E0A8E7B0E001C01D929A
:10008000A438B107E1F70E941C0F0C94F70F0C94F1
:100090000000EF92FF920F931F937B018C0120E0F1
:1000A00030E040E05FE40E94490388238CF0C801FF
:1000B000B70120E030E040E05FE40E94C1010E940F
:1000C000A9039B01AC01205030404040504806C07D
:1000D000C801B7010E94A9039B01AC01B901CA0183
:1000E0001F910F91FF90EF900895A0E0B0E0EBE733
:1000F000F0E00C94C00FDC012B01FA019C919230CE
:1001000008F439C1EB018881823008F433C194309E
:1001100069F4843009F02FC111969C91119789815F
:10012000981709F428C1A0E6B0E025C1843009F48D
:1001300021C18230A9F4923009F01DC19A01AD01AC
:1001400088E0EA010990AE01E90109929E0181501F
:10015000C1F7E201898111969C918923818308C1AD
:10016000923009F407C112962D903C901397EB0141
:100170008A819B811496AD90BD90CD90DC901797AD
:10018000EC80FD800E811F819101281B390BB90184
:1001900037FF04C066277727621B730B6032710537
:1001A0000CF061C0121613066CF537014801062EDB
:1001B00004C096948794779467940A94D2F721E0C8
:1001C00030E040E050E004C0220F331F441F551FB1
:1001D0006A95D2F721503040404050402E213F21B7
:1001E00040235123211531054105510521F021E01E
:1001F00030E040E050E079018A01E628F72808293C
:1002000019293CC0232BD1F1260E371E350146019A
:10021000062E04C096948794779467940A94D2F734
:1002200021E030E040E050E004C0220F331F441FC3
:10023000551F6A95D2F721503040404050402A2146
:100240003B214C215D21211531054105510521F04E
:1002500021E030E040E050E059016A01A628B728CB
:10026000C828D9280BC0821593052CF01C01AA249C
:10027000BB24650103C0EE24FF24870111969C91E5
:10028000D20111968C91981709F445C0992339F041
:10029000A80197012A193B094C095D0906C0A6016E
:1002A00095012E193F09400B510B57FD08C01182D3
:1002B0003382228224833583468357831DC081E0A5
:1002C00081833382228288279927DC01821B930B4A
:1002D000A40BB50B84839583A683B7830DC0220F2F
:1002E000331F441F551F24833583468357838281E0
:1002F000938101979383828324813581468157813D
:10030000DA01C9010197A109B1098F5F9F4FAF4F72
:10031000BF4328F30BC0918333822282EA0CFB1C7B
:100320000C1D1D1DE482F5820683178383E0808304
:10033000248135814681578157FF1AC0C901AA27F8
:1003400097FDA095BA2F81709070A070B0705695EF
:10035000479537952795822B932BA42BB52B848318
:100360009583A683B7838281938101969383828349
:10037000DF0101C0D201CD01CDB7DEB7E2E10C94BF
:10038000DC0FA0E2B0E0E7ECF1E00C94CC0F698365
:100390007A838B839C832D833E834F835887E9E048
:1003A000EE2EF12CEC0EFD1ECE010196B7010E943F
:1003B000D2048E010F5E1F4FCE010596B8010E9438
:1003C000D2048A8991E089278A8BC701B801AE01DE
:1003D000475E5F4F0E9475000E94FD03A096E6E015
:1003E0000C94E80FA0E2B0E0E8EFF1E00C94CC0F41
:1003F00069837A838B839C832D833E834F835887C5
:10040000F9E0EF2EF12CEC0EFD1ECE010196B701A6
:100410000E94D2048E010F5E1F4FCE010596B801D7
:100420000E94D204C701B801AE01475E5F4F0E942F
:1004300075000E94FD03A096E6E00C94E80FA0E290
:10044000B0E0E5E2F2E00C94C00F69837A838B831D
:100450009C832D833E834F835887CE010196BE0136
:10046000675F7F4F0E94D204CE010596BE016F5E8A
:100470007F4F0E94D2049985923088F0898982301A
:10048000C8F0943019F4823051F404C0843029F457
:10049000923081F480E690E0C6C0923049F420E0CA
:1004A0009A858A89981321E02A87CE010996BBC0D4
:1004B000823049F420E09A858A89981321E02A8BBA
:1004C000CE014196B0C02D843E844F8458886D88FB
:1004D0007E888F88988CEE24FF248701AA24BB2471
:1004E000650140E050E060E070E0E0E0F0E0C10174
:1004F00081709070892BE9F0E60CF71C081D191D1E
:100500009A01AB012A0D3B1D4C1D5D1D80E090E062
:10051000A0E0B0E0E614F7040805190520F481E036
:1005200090E0A0E0B0E0BA01A901480F591F6A1F8E
:100530007B1FAA0CBB1CCC1CDD1C97FE08C081E0F5
:1005400090E0A0E0B0E0A82AB92ACA2ADB2A3196B6
:10055000E032F10549F0660C771C881C991C569412
:10056000479437942794C3CFFA85EA892B893C892D
:100570008B859C85280F391F2E5F3F4F17C0CA01FE
:1005800081709070892B61F016950795F794E79428
:1005900080E090E0A0E0B0E8E82AF92A0A2B1B2BC3
:1005A00076956795579547952F5F3F4F77FDE7CF36
:1005B0000CC0440F551F661F771F17FD4160EE0CDE
:1005C000FF1C001F111F21503040403090E05907A0
:1005D00090E0690790E4790760F32B8F3C8FDB0193
:1005E000CA018F779070A070B07080349105A1051A
:1005F000B10561F447FD0AC0E114F10401051105DC
:1006000029F0405C5F4F6F4F7F4F40781A8EFE1786
:1006100011F081E08A8F4D8F5E8F6F8F78A383E01A
:10062000898FCE0149960E94FD03A096E2E10C94C9
:10063000DC0FA8E1B0E0EFE1F3E00C94CC0F6983AC
:100640007A838B839C832D833E834F83588789E0F5
:10065000E82EF12CEC0EFD1ECE010196B7010E9492
:10066000D2048E010F5E1F4FCE010596B8010E9485
:10067000D2048985823040F08989823028F0C70110
:10068000B8010E944A0501C08FEF6896E6E00C941D
:10069000E80FA8E1B0E0EFE4F3E00C94CC0F69833D
:1006A0007A838B839C832D833E834F83588789E095
:1006B000E82EF12CEC0EFD1ECE010196B7010E9432
:1006C000D2048E010F5E1F4FCE010596B8010E9425
:1006D000D2048985823040F08989823028F0C701B0
:1006E000B8010E944A0501C08FEF6896E6E00C94BD
:1006F000E80FA8E1B0E0EFE7F3E00C94CC0F6983DA
:100700007A838B839C832D833E834F83588789E034
:10071000E82EF12CEC0EFD1ECE010196B7010E94D1
:10072000D2048E010F5E1F4FCE010596B8010E94C4
:10073000D2048985823040F08989823028F0C7014F
:10074000B8010E944A0501C081E06896E6E00C9479
:10075000E80FACE0B0E0EFEAF3E00C94D00F69836F
:100760007A838B839C83CE010196BE016B5F7F4FA2
:100770000E94D2048D81823061F1823050F1843048
:1007800021F48E81882351F12EC02F81388537FDC9
:1007900020C06E812F3131051CF06623F9F023C093
:1007A0008EE190E0821B930B29853A854B855C8511
:1007B00004C056954795379527958A95D2F76623B5
:1007C000B1F050954095309521953F4F4F4F5F4F79
:1007D0000EC020E030E040E050E009C02FEF3FEFD6
:1007E0004FEF5FE704C020E030E040E050E8B9019F
:1007F000CA012C96E2E00C94EC0FDF92EF92FF928C
:100800000F931F93FC01E480F58006811781D1804E
:100810008081823048F480E090E0A0E1B0E0E82AF6
:10082000F92A0A2B1B2BA5C0843009F49FC0823003
:1008300021F4EE24FF24870105C0E114F104010531
:10084000110519F4E0E0F0E096C0628173819FEF3A
:10085000623879070CF05BC022E83FEF261B370BAC
:100860002A3131052CF020E030E040E050E02AC091
:10087000B801A701022E04C0769567955795479554
:100880000A94D2F781E090E0A0E0B0E004C0880FC5
:10089000991FAA1FBB1F2A95D2F70197A109B10979
:1008A0008E219F21A023B1230097A105B10521F03E
:1008B00081E090E0A0E0B0E09A01AB01282B392B59
:1008C0004A2B5B2BDA01C9018F779070A070B07052
:1008D00080349105A105B10539F427FF09C0205CDA
:1008E0003F4F4F4F5F4F04C0215C3F4F4F4F5F4F13
:1008F000E0E0F0E02030A0E03A07A0E04A07A0E402
:100900005A0710F0E1E0F0E079018A0127C0603871
:10091000710564F5FB01E158FF4FD801C7018F77DE
:100920009070A070B07080349105A105B10539F4C4
:10093000E7FE0DC080E490E0A0E0B0E004C08FE3EB
:1009400090E0A0E0B0E0E80EF91E0A1F1B1F17FFA1
:1009500005C016950795F794E794319687E01695AC
:100960000795F794E7948A95D1F705C0EE24FF2404
:100970008701EFEFF0E06E2F679566276795902F60
:100980009F77D794DD24D7948E2F8695492F462BB9
:10099000582F5D29B701CA011F910F91FF90EF9069
:1009A000DF900895FC01DB01408151812281622F9B
:1009B0006F7770E0221F2227221F9381892F880FD3
:1009C000822B282F30E0991F9927991F11969C930D
:1009D000119721153105A9F54115510561057105DD
:1009E00011F482E037C082E89FEF13969C938E93B8
:1009F00012979A01AB0167E0220F331F441F551F66
:100A00006A95D1F783E08C930DC0220F331F441FEA
:100A1000551F12968D919C911397019713969C9355
:100A20008E931297203080E0380780E0480780E4FA
:100A3000580758F314962D933D934D935C93179755
:100A400008952F3F310579F4411551056105710570
:100A500019F484E08C93089564FF03C081E08C93C3
:100A600012C01C9210C02F57304013963C932E9307
:100A7000129783E08C9387E0440F551F661F771F02
:100A80008A95D1F7706414964D935D936D937C9322
:100A9000179708951F93DC01FB019C91923008F495
:100AA00047C08081823008F443C0943051F41196DD
:100AB0001C91843099F58181682F70E0611B710968
:100AC0003FC0843021F0923031F48230B9F181811D
:100AD000882389F12DC011961C9111978230F1F075
:100AE00081811817D9F412962D913C911397828128
:100AF00093818217930794F028173907BCF0149656
:100B00008D919D910D90BC91A02D248135814681C0
:100B10005781281739074A075B0718F4112341F05A
:100B20000AC082179307A407B50740F4112319F0F0
:100B300061E070E005C06FEF7FEF02C060E070E041
:100B4000CB011F910895DF93CF93CDB7DEB7A7E216
:100B5000B0E0E7E2F0E0808180648C93A7E2B0E04F
:100B6000E7E2F0E080818F778C93A7E2B0E0E7E2E4
:100B7000F0E080818F7D8C93A6E2B0E0E6E2F0E0C9
:100B80008081887F8C93A6E2B0E0E6E2F0E080818D
:100B900087608C93A6E2B0E0E6E2F0E080818068B6
:100BA0008C93A6E2B0E0E6E2F0E0808188608C936E
:100BB000CF91DF910895DF93CF93CDB7DEB7A6E253
:100BC000B0E0E6E2F0E0808180688C93CF91DF9125
:100BD0000895DF93CF93CDB7DEB7A6E2B0E0E6E2AB
:100BE000F0E080818F778C93CF91DF910895DF9330
:100BF000CF93CDB7DEB7A6E2B0E0E6E2F0E08081C9
:100C000088608C93CF91DF910895DF93CF93CDB718
:100C1000DEB7A6E2B0E0E6E2F0E08081877F8C9369
:100C2000CF91DF910895DF93CF9300D0CDB7DEB79A
:100C30008A8319828A81883080F4A6E2B0E0E6E2F5
:100C4000F0E08081887F8C93A6E2B0E0E6E2F0E0FD
:100C500090818A81892B8C9302C081E0898389816C
:100C60000F900F90CF91DF910895DF93CF9300D035
:100C7000CDB7DEB78A8319828A818830D8F4A0E59F
:100C8000B0E0E0E5F0E080818F718C93A0E5B0E00A
:100C9000E0E5F0E08081282F8A81882F90E0880F9E
:100CA000991F82959295907F9827807F9827822B15
:100CB0008C9302C081E0898389810F900F90CF913E
:100CC000DF910895DF93CF93CDB7DEB7A6E2B0E012
:100CD000E6E2F0E0808180628C9380E0CF91DF914A
:100CE0000895DF93CF93CDB7DEB7A6E2B0E0E6E29A
:100CF000F0E080818F7D8C9380E0CF91DF9108952B
:100D0000DF93CF9300D000D000D0CDB7DEB78C8377
:100D10007E836D831B821A8219828D819E8100974A
:100D200009F45DC080917C00882309F055C081E002
:100D300080937C00A7E2B0E0E7E2F0E08081807E73
:100D40008C93A7E2B0E0E7E2F0E090818C81892B00
:100D50008C93A6E2B0E0E6E2F0E0808180648C93C0
:100D600005C089819A8101969A838983E6E2F0E041
:100D7000808182958F70882F90E0817090700097AD
:100D800031F489819A8123EC8035920750F389816F
:100D90009A8123EC8035920719F483E08B8319C084
:100DA000A6E2B0E0E6E2F0E0808180618C93E4E2CC
:100DB000F0E08081282F30E0E5E2F0E08081882FAC
:100DC00090E0982F8827822B932BED81FE819183D1
:100DD000808310927C0005C082E08B8302C081E09A
:100DE0008B838B8126960FB6F894DEBF0FBECDBFE6
:100DF000CF91DF910895DF93CF9300D000D000D042
:100E0000CDB7DEB78A837C836B835E834D83198283
:100E10008B819C810097D1F18D819E810097B1F1EA
:100E200080917C00882379F581E080937C0010928A
:100E30007D008B819C8190937900809378008D81D7
:100E40009E8190937B0080937A00A7E2B0E0E7E276
:100E5000F0E08081807E8C93A7E2B0E0E7E2F0E0F2
:100E600090818A81892B8C93A6E2B0E0E6E2F0E0E3
:100E7000808180648C93A6E2B0E0E6E2F0E08081BD
:100E800088608C9305C082E0898302C081E08983F9
:100E9000898126960FB6F894DEBF0FBECDBFCF91E5
:100EA000DF910895DF93CF9300D00F92CDB7DEB7D7
:100EB0009B838A8319828A819B81009709F46BC086
:100EC000EA81FB8180819181009709F464C0EA8105
:100ED000FB8185819681009709F45DC0EA81FB81E1
:100EE00082819381009709F456C080917C00882309
:100EF00009F04EC081E080937C0082E080937D0009
:100F0000EA81FB81828193819093790080937800BC
:100F1000EA81FB818081918190937F0080937E00A4
:100F2000EA81FB81848180938000EA81FB81858155
:100F3000968190937B0080937A0010928100A7E2C3
:100F4000B0E0E7E2F0E08081807E8C93A7E2B0E041
:100F5000E7E2F0E0408120917E0030917F008091B7
:100F60008100882F90E0F901E80FF91F8081842B20
:100F70008C93A6E2B0E0E6E2F0E0808180648C939E
:100F8000A6E2B0E0E6E2F0E0808188608C9305C0E4
:100F900082E0898302C081E0898389810F900F906C
:100FA0000F90CF91DF910895DF93CF9300D000D0C1
:100FB00000D0CDB7DEB78A837C836B835E834D839D
:100FC00019828B819C81009709F451C08D819E818B
:100FD000009709F44CC080917C00882309F044C03C
:100FE00081E080937C0081E080937D008B819C81F7
:100FF00090937900809378008D819E8190937B00FF
:1010000080937A00A7E2B0E0E7E2F0E08081807EA2
:101010008C93A7E2B0E0E7E2F0E090818A81892B2F
:101020008C93A0E5B0E0E0E5F0E080818F718C93D7
:10103000A0E5B0E0E0E5F0E080818C93A6E2B0E0CE
:10104000E6E2F0E0808180628C93A6E2B0E0E6E226
:10105000F0E0808188608C93A6E2B0E0E6E2F0E008
:10106000808180648C9305C082E0898302C081E026
:101070008983898126960FB6F894DEBF0FBECDBF57
:10108000CF91DF910895DF93CF930F92CDB7DEB765
:10109000198280917C00813089F4A6E2B0E0E6E21A
:1010A000F0E080818F7D8C93A6E2B0E0E6E2F0E094
:1010B0008081877F8C9310927C0002C081E08983BD
:1010C00089810F90CF91DF9108951F920F920FB6F3
:1010D0000F9211242F933F934F935F936F937F93BE
:1010E0008F939F93AF93BF93EF93FF93DF93CF9330
:1010F000CDB7DEB780917D00882319F5A0917800E7
:10110000B0917900E4E2F0E08081282F30E0E5E260
:10111000F0E08081882F90E0982F8827822B932BF6
:101120008D939C9310927C00E0917A00F0917B006B
:101130000995A6E2B0E0E6E2F0E08081877F8C933B
:1011400077C080917D008130D1F4A0917800B0917A
:101150007900E4E2F0E08081282F30E0E5E2F0E081
:101160008081882F90E0982F8827822B932B8D9356
:101170009C93E0917A00F0917B00099559C02091F1
:1011800078003091790080918100882F90E0880F5D
:10119000991FD901A80FB91FE4E2F0E08081282F40
:1011A00030E0E5E2F0E08081882F90E0982F8827FA
:1011B000822B932B11969C938E93809181008F5F4D
:1011C000809381009091810080918000981779F43C
:1011D00010927C00E0917A00F0917B000995A6E2E4
:1011E000B0E0E6E2F0E08081877F8C9321C0A7E247
:1011F000B0E0E7E2F0E08081807E8C93A7E2B0E08F
:10120000E7E2F0E0408120917E0030917F00809104
:101210008100882F90E0F901E80FF91F8081842B6D
:101220008C93A6E2B0E0E6E2F0E0808180648C93EB
:10123000CF91DF91FF91EF91BF91AF919F918F91EE
:101240007F916F915F914F913F912F910F900FBEC2
:101250000F901F901895DF93CF93CDB7DEB72E97E1
:101260000FB6F894DEBF0FBECDBF8A836B834C836D
:1012700081E089838A81843008F010C18B818830B5
:1012800008F00CC18C81813021F08C81882309F019
:1012900005C18A81282F30E03E872D878D859E8568
:1012A0008130910509F44FC02D853E8522303105EE
:1012B0002CF48D859E85009771F0EDC02D853E85BF
:1012C0002230310509F477C08D859E8583309105E4
:1012D00009F4A9C0E0C08C81282F30E03C872B871F
:1012E0008B859C850097C9F02B853C852130310585
:1012F00041F5AAE3B0E0EAE3F0E08081482F8B817A
:10130000282F30E081E090E0022E02C0880F991F64
:101310000A94E2F7842B8C9314C0AAE3B0E0EAE3CA
:10132000F0E08081482F8B81282F30E081E090E031
:10133000022E02C0880F991F0A94E2F78095842339
:101340008C931982ADC08C81282F30E03A87298791
:1013500089859A850097C9F029853A85213031051C
:1013600041F5A7E3B0E0E7E3F0E08081482F8B810F
:10137000282F30E081E090E0022E02C0880F991FF4
:101380000A94E2F7842B8C9314C0A7E3B0E0E7E360
:10139000F0E08081482F8B81282F30E081E090E0C1
:1013A000022E02C0880F991F0A94E2F780958423C9
:1013B0008C93198275C08C81282F30E038872F8359
:1013C0008F8198850097C9F02F81388521303105AC
:1013D00041F5A4E3B0E0E4E3F0E08081482F8B81A5
:1013E000282F30E081E090E0022E02C0880F991F84
:1013F0000A94E2F7842B8C9314C0A4E3B0E0E4E3F6
:10140000F0E08081482F8B81282F30E081E090E050
:10141000022E02C0880F991F0A94E2F78095842358
:101420008C9319823DC08C81282F30E03E832D8320
:101430008D819E810097C9F02D813E81213031053B
:1014400041F5A1E3B0E0E1E3F0E08081482F8B813A
:10145000282F30E081E090E0022E02C0880F991F13
:101460000A94E2F7842B8C9314C0A1E3B0E0E1E38B
:10147000F0E08081482F8B81282F30E081E090E0E0
:10148000022E02C0880F991F0A94E2F780958423E8
:101490008C93198205C081E0898302C081E0898331
:1014A00089812E960FB6F894DEBF0FBECDBFCF91C7
:1014B000DF910895DF93CF93CDB7DEB72E970FB6A8
:1014C000F894DEBF0FBECDBF8A836B834C8381E06F
:1014D00089838A81843008F014C18B81883008F0B8
:1014E00010C18C81813021F08C81882309F009C1E1
:1014F0008A81282F30E03E872D878D859E8581301B
:10150000910509F450C02D853E85223031052CF41B
:101510008D859E85009771F0F1C02D853E85223026
:10152000310509F479C08D859E858330910509F4D4
:10153000ACC0E4C08C81282F30E03C872B878B85A2
:101540009C85009731F02B853C8521303105B1F029
:1015500028C0ABE3B0E0EBE3F0E08081482F8B8163
:10156000282F30E081E090E0022E02C0880F991F02
:101570000A94E2F7809584238C9313C0ABE3B0E028
:10158000EBE3F0E08081482F8B81282F30E081E071
:1015900090E0022E02C0880F991F0A94E2F7842B74
:1015A0008C931982B0C08C81282F30E03A8729872C
:1015B00089859A85009731F029853A852130310552
:1015C000B1F028C0A8E3B0E0E8E3F0E08081482F64
:1015D0008B81282F30E081E090E0022E02C0880F3E
:1015E000991F0A94E2F7809584238C9313C0A8E393
:1015F000B0E0E8E3F0E08081482F8B81282F30E0D5
:1016000081E090E0022E02C0880F991F0A94E2F751
:10161000842B8C93198277C08C81282F30E03887F7
:101620002F838F819885009731F02F813885213065
:101630003105B1F028C0A5E3B0E0E5E3F0E080813A
:10164000482F8B81282F30E081E090E0022E02C0ED
:10165000880F991F0A94E2F7809584238C9313C016
:10166000A5E3B0E0E5E3F0E08081482F8B81282FEF
:1016700030E081E090E0022E02C0880F991F0A94AA
:10168000E2F7842B8C9319823EC08C81282F30E0A6
:101690003E832D838D819E81009731F02D813E8187
:1016A00021303105B1F028C0A2E3B0E0E2E3F0E080
:1016B0008081482F8B81282F30E081E090E0022E3E
:1016C00002C0880F991F0A94E2F7809584238C93B7
:1016D00013C0A2E3B0E0E2E3F0E08081482F8B8109
:1016E000282F30E081E090E0022E02C0880F991F81
:1016F0000A94E2F7842B8C93198205C081E08983D8
:1017000002C081E0898389812E960FB6F894DEBFEE
:101710000FBECDBFCF91DF910895DF93CF93CDB7AB
:10172000DEB727970FB6F894DEBF0FBECDBF8A8312
:101730006B835D834C8381E089838A81843008F0E8
:1017400081C08B81883008F07DC08C819D8100979D
:1017500009F478C08A81282F30E03F832E834E81A0
:101760005F814130510561F18E819F818230910509
:1017700034F42E813F812115310569F060C04E811E
:101780005F814230510589F18E819F8183309105BF
:1017900009F440C054C0E9E3F0E08081282F30E034
:1017A0008B81882F90E0A90102C0559547958A95B5
:1017B000E2F7CA018170EC81FD818083198244C007
:1017C000E6E3F0E08081282F30E08B81882F90E0E5
:1017D000A90102C0559547958A95E2F7CA01817023
:1017E000EC81FD81808319822FC0E3E3F0E08081EA
:1017F000282F30E08B81882F90E0A90102C05595F9
:1018000047958A95E2F7CA018170EC81FD8180835A
:1018100019821AC0E0E3F0E08081282F30E08B814C
:10182000882F90E0A90102C0559547958A95E2F767
:10183000CA018170EC81FD818083198205C081E03D
:10184000898302C081E08983898127960FB6F89445
:10185000DEBF0FBECDBFCF91DF910895DF93CF9351
:1018600000D000D000D0CDB7DEB78A836B834C8325
:1018700081E089838A81843008F0F6C08B818830CA
:1018800008F0F2C08C81882321F08C81813009F02E
:10189000EBC0A0E5B0E0E0E5F0E08081482F8B816F
:1018A000282F30E081E090E002C0880F991F2A9530
:1018B000E2F7809584238C938A81282F30E03E8341
:1018C0002D838D819E818130910509F444C02D8145
:1018D0003E81223031052CF48D819E81009771F07C
:1018E000C1C02D813E812230310509F461C08D8156
:1018F0009E818330910509F488C0B4C08C8188230F
:10190000A1F4ABE3B0E0EBE3F0E08081482F8B8102
:10191000282F30E081E090E0022E02C0880F991F4E
:101920000A94E2F7842B8C9314C0ABE3B0E0EBE3B2
:10193000F0E08081482F8B81282F30E081E090E01B
:10194000022E02C0880F991F0A94E2F78095842323
:101950008C93198289C08C818823A1F4A8E3B0E01C
:10196000E8E3F0E08081482F8B81282F30E081E090
:1019700090E0022E02C0880F991F0A94E2F7842B90
:101980008C9314C0A8E3B0E0E8E3F0E08081482F36
:101990008B81282F30E081E090E0022E02C0880F7A
:1019A000991F0A94E2F7809584238C9319825CC076
:1019B0008C818823A1F4A5E3B0E0E5E3F0E0808129
:1019C000482F8B81282F30E081E090E0022E02C06A
:1019D000880F991F0A94E2F7842B8C9314C0A5E317
:1019E000B0E0E5E3F0E08081482F8B81282F30E0E4
:1019F00081E090E0022E02C0880F991F0A94E2F75E
:101A0000809584238C9319822FC08C818823A1F424
:101A1000A2E3B0E0E2E3F0E08081482F8B81282F41
:101A200030E081E090E0022E02C0880F991F0A94F6
:101A3000E2F7842B8C9314C0A2E3B0E0E2E3F0E081
:101A40008081482F8B81282F30E081E090E0022EAA
:101A500002C0880F991F0A94E2F7809584238C9323
:101A6000198202C081E08983898126960FB6F89495
:101A7000DEBF0FBECDBFCF91DF910895DF93CF932F
:101A800000D000D00F92CDB7DEB78A836B8381E0A0
:101A900089838A818430D0F58A81282F30E03D8384
:101AA0002C838C819D8181309105D9F02C813D81E1
:101AB000223031052CF48C819D81009761F023C088
:101AC0002C813D812230310591F08C819D818330C4
:101AD000910599F018C0EAE3F0E08B8180831982C8
:101AE00017C0E7E3F0E08B818083198211C0E4E343
:101AF000F0E08B81808319820BC0E1E3F0E08B8101
:101B00008083198205C081E0898302C081E08983D6
:101B100089810F900F900F900F900F90CF91DF91D0
:101B20000895DF93CF9300D000D00F92CDB7DEB7EA
:101B30008A836B8381E089838A818430D0F58A81AE
:101B4000282F30E03D832C838C819D81813091054D
:101B5000D9F02C813D81223031052CF48C819D817E
:101B6000009761F023C02C813D812230310591F036
:101B70008C819D818330910599F018C0EBE3F0E0F2
:101B80008B818083198217C0E8E3F0E08B8180832A
:101B9000198211C0E5E3F0E08B81808319820BC0CC
:101BA000E2E3F0E08B818083198205C081E08983C4
:101BB00002C081E0898389810F900F900F900F9070
:101BC0000F90CF91DF910895DF93CF9300D000D095
:101BD00000D0CDB7DEB78A837C836B8381E08983B5
:101BE0008A81843008F047C08B819C81009709F47A
:101BF00042C08A81282F30E03E832D838D819E81D3
:101C000081309105E9F02D813E81223031052CF49F
:101C10008D819E81009761F02BC02D813E81223005
:101C20003105B1F08D819E8183309105C9F020C0CE
:101C3000E9E3F0E08081EB81FC81808319821DC0A3
:101C4000E6E3F0E08081EB81FC818083198215C09E
:101C5000E3E3F0E08081EB81FC81808319820DC099
:101C6000E0E3F0E08081EB81FC818083198205C094
:101C700081E0898302C081E08983898126960FB63D
:101C8000F894DEBF0FBECDBFCF91DF910895DF93F3
:101C9000CF9300D0CDB7DEB79A83898389819A81AB
:101CA000692F41E00E942B090F900F90CF91DF9197
:101CB0000895DF93CF9300D0CDB7DEB79A838983A1
:101CC00089819A81692F41E00E945A0A0F900F90F2
:101CD000CF91DF910895DF93CF9300D0CDB7DEB7DA
:101CE0009A83898389819A81692F40E00E945A0AE8
:101CF0000F900F90CF91DF910895DF93CF93CDB7E1
:101D0000DEB780916800909169000E94590E809121
:101D10008200909183008038910538F080916A00AC
:101D200090916B000E94590E06C080916A009091BC
:101D30006B000E946B0E80918200909183008F3F18
:101D4000910541F038F080916C0090916D000E94F7
:101D5000590E06C080916C0090916D000E946B0E30
:101D6000809182009091830021E08038920738F0C2
:101D700080916E0090916F000E94590E06C0809174
:101D80006E0090916F000E946B0E80918200909186
:101D9000830022E08030920738F0809170009091AB
:101DA00071000E94590E06C08091700090917100E0
:101DB0000E946B0E809182009091830022E0803817
:101DC000920738F080917200909173000E94590E32
:101DD00006C080917200909173000E946B0E8091FA
:101DE00082009091830023E08030920738F0809148
:101DF0007400909175000E94590E06C08091740085
:101E0000909175000E946B0E8091820090918300EA
:101E100023E08038920738F0809176009091770027
:101E20000E94590E06C080917600909177000E9422
:101E30006B0ECF91DF910895DF93CF93CDB7DEB7CF
:101E40002F970FB6F894DEBF0FBECDBF80E060E0E5
:101E500040E00E942B091F860FC08F85882F90E0DD
:101E6000880F991FFC01E859FF4F808191810E94E2
:101E7000470E8F858F5F8F878F85883070F30E9424
:101E8000A30580E00E94130622E830E04DE75EE003
:101E900080E0B9010E94D407789480E090E0A8E443
:101EA000B2E48B879C87AD87BE876B857C858D85EB
:101EB0009E8520E030E04AEF54E40E941F02DC01DE
:101EC000CB018F839887A987BA876F8178858985A9
:101ED0009A8520E030E040E85FE30E9479038823A0
:101EE0002CF481E090E09E838D833FC06F817885E4
:101EF00089859A8520E03FEF4FE757E40E94190358
:101F000018164CF56B857C858D859E8520E030E02C
:101F100040E251E40E941F02DC01CB01BC01CD0173
:101F20000E944900DC01CB019E838D830FC088ECA9
:101F300090E09C838B838B819C810197F1F79C833C
:101F40008B838D819E8101979E838D838D819E8160
:101F5000009769F7A2CF6F81788589859A850E945D
:101F60004900DC01CB019E838D838D819E819A8304
:101F7000898389819A810197F1F79A8389838DCF2B
:101F80002F923F924F925F926F927F928F929F9289
:101F9000AF92BF92CF92DF92EF92FF920F931F9377
:101FA000CF93DF93CDB7DEB7CA1BDB0B0FB6F89428
:101FB000DEBF0FBECDBF09942A88398848885F8468
:101FC0006E847D848C849B84AA84B984C884DF80D9
:101FD000EE80FD800C811B81AA81B981CE0FD11DBD
:101FE0000FB6F894DEBF0FBECDBFED010895F89493
:021FF000FFCF21
:101FF20000000000000000000100010101020103D5
:082002000104010501060107BC
:00000001FF
