:100000000C942A000C9434000C9434000C943400AA
:100010000C9434000C9434000C9434000C94340090
:100020000C9434000C9434000C9434000C94340080
:100030000C9434000C9434000C9434000C94340070
:100040000C9434000C9434000C9434000C94340060
:100050000C94340011241FBECFE5D8E0DEBFCDBF25
:100060000E9436000C9449000C940000DF93CF935B
:10007000CDB7DEB7A1E3B0E0E1E3F0E080818260DC
:100080008C93A2E3B0E0E2E3F0E080818D7F8C937B
:06009000F8CFF894FFCF49
:00000001FF
