:100000000C942A000C9447000C9447000C94470071
:100010000C9447000C9447000C9447000C94470044
:100020000C9447000C9447000C9447000C94470034
:100030000C9447000C9447000C9447000C94470024
:100040000C9447000C9447000C9447000C94470014
:100050000C94470011241FBECFE5D8E0DEBFCDBF12
:1000600010E0A0E6B0E0E6E4FDE002C005900D92ED
:10007000AA36B107D9F710E0AAE6B0E001C01D9298
:10008000AC36B107E1F70E9458060C94A1060C9417
:100090000000DF93CF9300D00F92CDB7DEB7698316
:1000A0007A838B8389819A81692F41E00E94C10004
:1000B00089819B81692F41E00E94C10089819A81D9
:1000C000692F40E00E94F00189819B81692F40E007
:1000D0000E94F0010F900F900F90CF91DF91089543
:1000E000DF93CF9300D00F92CDB7DEB769837A83C9
:1000F0008B8389819A81692F41E00E94F001898177
:100100009B81692F40E00E94F0010F900F900F90AB
:10011000CF91DF910895DF93CF9300D00F92CDB7A9
:10012000DEB769837A838B8389819A81692F40E066
:100130000E94F00189819B81692F41E00E94F001BA
:100140000F900F900F90CF91DF910895DF93CF9391
:1001500000D00F92CDB7DEB769837A838B83898114
:100160009A81692F40E00E94F00189819B81692F6B
:1001700040E00E94F0010F900F900F90CF91DF911F
:100180000895DF93CF93CDB7DEB72E970FB6F894CF
:10019000DEBF0FBECDBF8A836B834C8381E0898332
:1001A0008A81843008F010C18B81883008F00CC13E
:1001B0008C81813021F08C81882309F005C18A81EE
:1001C000282F30E03E872D878D859E8581309105D3
:1001D00009F44FC02D853E85223031052CF48D85E4
:1001E0009E85009771F0EDC02D853E85223031054A
:1001F00009F477C08D859E858330910509F4A9C0E7
:10020000E0C08C81282F30E03C872B878B859C8534
:100210000097C9F02B853C852130310541F5AAE3D3
:10022000B0E0EAE3F0E08081482F8B81282F30E0B6
:1002300081E090E0022E02C0880F991F0A94E2F735
:10024000842B8C9314C0AAE3B0E0EAE3F0E0808151
:10025000482F8B81282F30E081E090E0022E02C0F1
:10026000880F991F0A94E2F7809584238C93198252
:10027000ADC08C81282F30E03A87298789859A85FF
:100280000097C9F029853A852130310541F5A7E36A
:10029000B0E0E7E3F0E08081482F8B81282F30E049
:1002A00081E090E0022E02C0880F991F0A94E2F7C5
:1002B000842B8C9314C0A7E3B0E0E7E3F0E08081E7
:1002C000482F8B81282F30E081E090E0022E02C081
:1002D000880F991F0A94E2F7809584238C931982E2
:1002E00075C08C81282F30E038872F838F819885C7
:1002F0000097C9F02F8138852130310541F5A4E3FD
:10030000B0E0E4E3F0E08081482F8B81282F30E0DB
:1003100081E090E0022E02C0880F991F0A94E2F754
:10032000842B8C9314C0A4E3B0E0E4E3F0E080817C
:10033000482F8B81282F30E081E090E0022E02C010
:10034000880F991F0A94E2F7809584238C93198271
:100350003DC08C81282F30E03E832D838D819E818E
:100360000097C9F02D813E812130310541F5A1E38F
:10037000B0E0E1E3F0E08081482F8B81282F30E06E
:1003800081E090E0022E02C0880F991F0A94E2F7E4
:10039000842B8C9314C0A1E3B0E0E1E3F0E0808112
:1003A000482F8B81282F30E081E090E0022E02C0A0
:1003B000880F991F0A94E2F7809584238C93198201
:1003C00005C081E0898302C081E0898389812E96FE
:1003D0000FB6F894DEBF0FBECDBFCF91DF91089569
:1003E000DF93CF93CDB7DEB72E970FB6F894DEBF6D
:1003F0000FBECDBF8A836B834C8381E089838A8162
:10040000843008F014C18B81883008F010C18C81D1
:10041000813021F08C81882309F009C18A81282F3D
:1004200030E03E872D878D859E858130910509F4CA
:1004300050C02D853E85223031052CF48D859E855A
:10044000009771F0F1C02D853E852230310509F409
:1004500079C08D859E858330910509F4ACC0E4C0D8
:100460008C81282F30E03C872B878B859C850097DB
:1004700031F02B853C8521303105B1F028C0ABE34C
:10048000B0E0EBE3F0E08081482F8B81282F30E053
:1004900081E090E0022E02C0880F991F0A94E2F7D3
:1004A000809584238C9313C0ABE3B0E0EBE3F0E0E2
:1004B0008081482F8B81282F30E081E090E0022E50
:1004C00002C0880F991F0A94E2F7842B8C9319823B
:1004D000B0C08C81282F30E03A87298789859A859A
:1004E000009731F029853A8521303105B1F028C0D7
:1004F000A8E3B0E0E8E3F0E08081482F8B81282F6B
:1005000030E081E090E0022E02C0880F991F0A942B
:10051000E2F7809584238C9313C0A8E3B0E0E8E36E
:10052000F0E08081482F8B81282F30E081E090E03F
:10053000022E02C0880F991F0A94E2F7842B8C9335
:10054000198277C08C81282F30E038872F838F81E4
:100550009885009731F02F81388521303105B1F031
:1005600028C0A5E3B0E0E5E3F0E08081482F8B816F
:10057000282F30E081E090E0022E02C0880F991F02
:100580000A94E2F7809584238C9313C0A5E3B0E02E
:10059000E5E3F0E08081482F8B81282F30E081E077
:1005A00090E0022E02C0880F991F0A94E2F7842B74
:1005B0008C9319823EC08C81282F30E03E832D839E
:1005C0008D819E81009731F02D813E812130310552
:1005D000B1F028C0A2E3B0E0E2E3F0E08081482F70
:1005E0008B81282F30E081E090E0022E02C0880F3E
:1005F000991F0A94E2F7809584238C9313C0A2E399
:10060000B0E0E2E3F0E08081482F8B81282F30E0DA
:1006100081E090E0022E02C0880F991F0A94E2F751
:10062000842B8C93198205C081E0898302C081E00C
:10063000898389812E960FB6F894DEBF0FBECDBF99
:10064000CF91DF910895DF93CF93CDB7DEB7279792
:100650000FB6F894DEBF0FBECDBF8A836B835D8378
:100660004C8381E089838A81843008F081C08B814A
:10067000883008F07DC08C819D81009709F478C096
:100680008A81282F30E03F832E834E815F81413065
:10069000510561F18E819F818230910534F42E8164
:1006A0003F812115310569F060C04E815F81423084
:1006B000510589F18E819F818330910509F440C0F5
:1006C00054C0E9E3F0E08081282F30E08B81882F4F
:1006D00090E0A90102C0559547958A95E2F7CA01B5
:1006E0008170EC81FD818083198244C0E6E3F0E0F3
:1006F0008081282F30E08B81882F90E0A90102C0F3
:10070000559547958A95E2F7CA018170EC81FD8184
:10071000808319822FC0E3E3F0E08081282F30E04E
:100720008B81882F90E0A90102C0559547958A9545
:10073000E2F7CA018170EC81FD81808319821AC0C1
:10074000E0E3F0E08081282F30E08B81882F90E07B
:10075000A90102C0559547958A95E2F7CA018170B3
:10076000EC81FD818083198205C081E0898302C00C
:1007700081E08983898127960FB6F894DEBF0FBE8A
:10078000CDBFCF91DF910895DF93CF9300D000D0FC
:1007900000D0CDB7DEB78A836B834C8381E0898339
:1007A0008A81843008F0F6C08B81883008F0F2C06E
:1007B0008C81882321F08C81813009F0EBC0A0E589
:1007C000B0E0E0E5F0E08081482F8B81282F30E019
:1007D00081E090E002C0880F991F2A95E2F780958A
:1007E00084238C938A81282F30E03E832D838D8152
:1007F0009E818130910509F444C02D813E812230D3
:1008000031052CF48D819E81009771F0C1C02D813E
:100810003E812230310509F461C08D819E81833093
:10082000910509F488C0B4C08C818823A1F4ABE39E
:10083000B0E0EBE3F0E08081482F8B81282F30E09F
:1008400081E090E0022E02C0880F991F0A94E2F71F
:10085000842B8C9314C0ABE3B0E0EBE3F0E0808139
:10086000482F8B81282F30E081E090E0022E02C0DB
:10087000880F991F0A94E2F7809584238C9319823C
:1008800089C08C818823A1F4A8E3B0E0E8E3F0E01C
:100890008081482F8B81282F30E081E090E0022E6C
:1008A00002C0880F991F0A94E2F7842B8C9314C01E
:1008B000A8E3B0E0E8E3F0E08081482F8B81282FA7
:1008C00030E081E090E0022E02C0880F991F0A9468
:1008D000E2F7809584238C9319825CC08C818823F5
:1008E000A1F4A5E3B0E0E5E3F0E08081482F8B813F
:1008F000282F30E081E090E0022E02C0880F991F7F
:100900000A94E2F7842B8C9314C0A5E3B0E0E5E3EE
:10091000F0E08081482F8B81282F30E081E090E04B
:10092000022E02C0880F991F0A94E2F78095842353
:100930008C9319822FC08C818823A1F4A2E3B0E0AC
:10094000E2E3F0E08081482F8B81282F30E081E0C6
:1009500090E0022E02C0880F991F0A94E2F7842BC0
:100960008C9314C0A2E3B0E0E2E3F0E08081482F72
:100970008B81282F30E081E090E0022E02C0880FAA
:10098000991F0A94E2F7809584238C93198202C000
:1009900081E08983898126960FB6F894DEBF0FBE69
:1009A000CDBFCF91DF910895DF93CF9300D000D0DA
:1009B0000F92CDB7DEB78A836B8381E089838A810A
:1009C0008430D0F58A81282F30E03D832C838C81C0
:1009D0009D8181309105D9F02C813D8122303105F6
:1009E0002CF48C819D81009761F023C02C813D8186
:1009F0002230310591F08C819D818330910599F0F1
:100A000018C0EAE3F0E08B818083198217C0E7E326
:100A1000F0E08B818083198211C0E4E3F0E08B81E8
:100A2000808319820BC0E1E3F0E08B81808319821F
:100A300005C081E0898302C081E0898389810F90AC
:100A40000F900F900F900F90CF91DF910895DF934B
:100A5000CF9300D000D00F92CDB7DEB78A836B83DF
:100A600081E089838A818430D0F58A81282F30E023
:100A70003D832C838C819D8181309105D9F02C811F
:100A80003D81223031052CF48C819D81009761F0ED
:100A900023C02C813D812230310591F08C819D81D4
:100AA0008330910599F018C0EBE3F0E08B818083EF
:100AB000198217C0E8E3F0E08B818083198211C0AE
:100AC000E5E3F0E08B81808319820BC0E2E3F0E084
:100AD0008B818083198205C081E0898302C081E017
:100AE000898389810F900F900F900F900F90CF9175
:100AF000DF910895DF93CF9300D000D000D0CDB721
:100B0000DEB78A837C836B8381E089838A8184302A
:100B100008F047C08B819C81009709F442C08A810C
:100B2000282F30E03E832D838D819E818130910579
:100B3000E9F02D813E81223031052CF48D819E819A
:100B4000009761F02BC02D813E8122303105B1F03C
:100B50008D819E8183309105C9F020C0E9E3F0E0EA
:100B60008081EB81FC81808319821DC0E6E3F0E087
:100B70008081EB81FC818083198215C0E3E3F0E082
:100B80008081EB81FC81808319820DC0E0E3F0E07D
:100B90008081EB81FC818083198205C081E089839B
:100BA00002C081E08983898126960FB6F894DEBF62
:100BB0000FBECDBFCF91DF910895DF93CF9300D0CB
:100BC0000F92CDB7DEB769837A838B8389819A814F
:100BD000692F40E00E94C1008B81823031F489810D
:100BE0009A81692F40E00E94C4030F900F900F90EC
:100BF000CF91DF910895DF93CF9300D000D00F9273
:100C0000CDB7DEB76A837B838C8319828C8188237E
:100C1000B1F48A819B81692F40E00E94F0018A81B2
:100C20009B81692F9E012F5F3F4FA9010E942303E3
:100C300089811D82882399F581E08D8330C08C8164
:100C4000813091F48A819B81692F40E00E94F001FC
:100C50008A819B81692F9E012F5F3F4FA9010E94CE
:100C6000230389818D831BC08C818230B1F48A81FA
:100C70009B81692F41E00E94F0018A819B81692F4D
:100C80009E012F5F3F4FA9010E94230389811D828E
:100C9000882329F481E08D8302C089818D838D8131
:100CA0000F900F900F900F900F90CF91DF910895BC
:100CB000DF93CF93CDB7DEB7609160007091610094
:100CC000809162000E94DD05609163007091640074
:100CD000809165000E94DD05609160007091610067
:100CE000809162000E94FB0580936A00609163001E
:100CF00070916400809165000E94FB0580936B00F9
:100D000080916A00813061F480916B00882341F406
:100D10006091660070916700809168000E94700089
:100D200080916B008130C1F680916A008823A1F622
:100D30006091660070916700809168000E948B004E
:060D4000CBCFF894FFCFB9
:0A0D4600030702030602010001008A
:00000001FF
