:100000000C942A000C943C000C943C000C943C0092
:100010000C94800D0C944D0D0C941A0D0C94E70C5F
:100020000C94B40C0C94810C0C944E0C0C941B0C82
:100030000C943C000C943C000C943C000C943C0050
:100040000C9400030C943C000C943C000C943C0079
:100050000C943C0011241FBECFE5D8E0DEBFCDBF1D
:1000600010E0A0E6B0E001C01D92AF38B107E1F7A3
:100070000E94D00D0C94E70D0C940000DF93CF93F9
:10008000CDB7DEB7A7E2B0E0E7E2F0E080818064C0
:100090008C93A7E2B0E0E7E2F0E080818F778C9369
:1000A000A7E2B0E0E7E2F0E080818F7D8C93A6E2EA
:1000B000B0E0E6E2F0E08081887F8C93A6E2B0E0D9
:1000C000E6E2F0E0808187608C93A6E2B0E0E6E2B1
:1000D000F0E0808180688C93A6E2B0E0E6E2F0E098
:1000E000808188608C93CF91DF910895DF93CF93C7
:1000F000CDB7DEB7A6E2B0E0E6E2F0E0808180684E
:100100008C93CF91DF910895DF93CF93CDB7DEB776
:10011000A6E2B0E0E6E2F0E080818F778C93CF91A9
:10012000DF910895DF93CF93CDB7DEB7A6E2B0E0BD
:10013000E6E2F0E0808188608C93CF91DF910895B2
:10014000DF93CF93CDB7DEB7A6E2B0E0E6E2F0E012
:100150008081877F8C93CF91DF910895DF93CF9338
:1001600000D0CDB7DEB78A8319828A81883080F4C7
:10017000A6E2B0E0E6E2F0E08081887F8C93A6E220
:10018000B0E0E6E2F0E090818A81892B8C9302C096
:1001900081E0898389810F900F90CF91DF9108953D
:1001A000DF93CF9300D0CDB7DEB78A8319828A81DF
:1001B0008830D8F4A0E5B0E0E0E5F0E080818F7110
:1001C0008C93A0E5B0E0E0E5F0E08081282F8A8103
:1001D000882F90E0880F991F82959295907F98279D
:1001E000807F9827822B8C9302C081E0898389814C
:1001F0000F900F90CF91DF910895DF93CF93CDB7FC
:10020000DEB7A6E2B0E0E6E2F0E0808180628C93A7
:1002100080E0CF91DF910895DF93CF93CDB7DEB724
:10022000A6E2B0E0E6E2F0E080818F7D8C9380E092
:10023000CF91DF910895DF93CF9300D000D000D00D
:10024000CDB7DEB78C837E836D831B821A821982C1
:100250008D819E81009709F45DC0809164008823A0
:1002600009F055C081E080936400A7E2B0E0E7E2C6
:10027000F0E08081807E8C93A7E2B0E0E7E2F0E0DE
:1002800090818C81892B8C93A6E2B0E0E6E2F0E0CD
:10029000808180648C9305C089819A8101969A83BC
:1002A0008983E6E2F0E0808182958F70882F90E06C
:1002B00081709070009731F489819A8123EC8035A8
:1002C000920750F389819A8123EC8035920719F4C3
:1002D00083E08B8319C0A6E2B0E0E6E2F0E0808123
:1002E00080618C93E4E2F0E08081282F30E0E5E249
:1002F000F0E08081882F90E0982F8827822B932B25
:10030000ED81FE81918380831092640005C082E0BC
:100310008B8302C081E08B838B8126960FB6F89485
:10032000DEBF0FBECDBFCF91DF910895DF93CF9396
:1003300000D000D000D0CDB7DEB78A837C836B833A
:100340005E834D8319828B819C810097D1F18D81D1
:100350009E810097B1F180916400882379F581E056
:1003600080936400109265008B819C819093610062
:10037000809360008D819E819093630080936200E2
:10038000A7E2B0E0E7E2F0E08081807E8C93A7E214
:10039000B0E0E7E2F0E090818A81892B8C93A6E2BD
:1003A000B0E0E6E2F0E0808180648C93A6E2B0E009
:1003B000E6E2F0E0808188608C9305C082E089836A
:1003C00002C081E08983898126960FB6F894DEBF4A
:1003D0000FBECDBFCF91DF910895DF93CF9300D0B3
:1003E0000F92CDB7DEB79B838A8319828A819B8166
:1003F000009709F46BC0EA81FB81808191810097AD
:1004000009F464C0EA81FB8185819681009709F433
:100410005DC0EA81FB8182819381009709F456C017
:1004200080916400882309F04EC081E080936400CD
:1004300082E080936500EA81FB81828193819093C1
:10044000610080936000EA81FB81808191819093BB
:10045000670080936600EA81FB8184818093680055
:10046000EA81FB818581968190936300809362008D
:1004700010926900A7E2B0E0E7E2F0E08081807EC0
:100480008C93A7E2B0E0E7E2F0E0408120916600C3
:100490003091670080916900882F90E0F901E80FA2
:1004A000F91F8081842B8C93A6E2B0E0E6E2F0E0B5
:1004B000808180648C93A6E2B0E0E6E2F0E0808187
:1004C00088608C9305C082E0898302C081E08983C3
:1004D00089810F900F900F90CF91DF910895DF9356
:1004E000CF9300D000D000D0CDB7DEB78A837C8315
:1004F0006B835E834D8319828B819C81009709F405
:1005000051C08D819E81009709F44CC08091640098
:10051000882309F044C081E08093640081E08093E7
:1005200065008B819C8190936100809360008D8138
:100530009E819093630080936200A7E2B0E0E7E2BF
:10054000F0E08081807E8C93A7E2B0E0E7E2F0E00B
:1005500090818A81892B8C93A0E5B0E0E0E5F0E002
:1005600080818F718C93A0E5B0E0E0E5F0E08081C0
:100570008C93A6E2B0E0E6E2F0E0808180628C93AA
:10058000A6E2B0E0E6E2F0E0808188608C93A6E22B
:10059000B0E0E6E2F0E0808180648C9305C082E008
:1005A000898302C081E08983898126960FB6F894F9
:1005B000DEBF0FBECDBFCF91DF910895DF93CF9304
:1005C0000F92CDB7DEB7198280916400813089F433
:1005D000A6E2B0E0E6E2F0E080818F7D8C93A6E2B7
:1005E000B0E0E6E2F0E08081877F8C9310926400B7
:1005F00002C081E0898389810F90CF91DF910895B6
:100600001F920F920FB60F9211242F933F934F9387
:100610005F936F937F938F939F93AF93BF93EF936A
:10062000FF93DF93CF93CDB7DEB78091650088232A
:1006300019F5A0916000B0916100E4E2F0E08081E2
:10064000282F30E0E5E2F0E08081882F90E0982FBD
:100650008827822B932B8D939C9310926400E091BA
:100660006200F09163000995A6E2B0E0E6E2F0E0F6
:100670008081877F8C9377C0809165008130D1F431
:10068000A0916000B0916100E4E2F0E08081282F49
:1006900030E0E5E2F0E08081882F90E0982F882715
:1006A000822B932B8D939C93E0916200F0916300D9
:1006B000099559C0209160003091610080916900D6
:1006C000882F90E0880F991FD901A80FB91FE4E285
:1006D000F0E08081282F30E0E5E2F0E08081882F93
:1006E00090E0982F8827822B932B11969C938E93C2
:1006F000809169008F5F809369009091690080917B
:100700006800981779F410926400E0916200F0910B
:1007100063000995A6E2B0E0E6E2F0E08081877F21
:100720008C9321C0A7E2B0E0E7E2F0E08081807E18
:100730008C93A7E2B0E0E7E2F0E040812091660010
:100740003091670080916900882F90E0F901E80FEF
:10075000F91F8081842B8C93A6E2B0E0E6E2F0E002
:10076000808180648C93CF91DF91FF91EF91BF9155
:10077000AF919F918F917F916F915F914F913F9139
:100780002F910F900FBE0F901F901895DF93CF936E
:1007900000D00F92CDB7DEB769837A838B838981CE
:1007A0009A81692F41E00E943E0489819B81692FD3
:1007B00041E00E943E0489819A81692F40E00E94B5
:1007C0006D0589819B81692F40E00E946D050F9026
:1007D0000F900F90CF91DF910895DF93CF9300D0CA
:1007E0000F92CDB7DEB769837A838B8389819A8133
:1007F000692F41E00E946D0589819B81692F40E04E
:100800000E946D050F900F900F90CF91DF9108958A
:10081000DF93CF9300D00F92CDB7DEB769837A8391
:100820008B8389819A81692F40E00E946D058981BF
:100830009B81692F41E00E946D050F900F900F90F2
:10084000CF91DF910895DF93CF9300D00F92CDB772
:10085000DEB769837A838B8389819A81692F40E02F
:100860000E946D0589819B81692F40E00E946D0582
:100870000F900F900F90CF91DF910895DF93CF935A
:10088000CDB7DEB72E970FB6F894DEBF0FBECDBF43
:100890008A836B834C8381E089838A81843008F06A
:1008A00010C18B81883008F00CC18C81813021F01F
:1008B0008C81882309F005C18A81282F30E03E878A
:1008C0002D878D859E858130910509F44FC02D853A
:1008D0003E85223031052CF48D859E85009771F080
:1008E000EDC02D853E852230310509F477C08D8518
:1008F0009E858330910509F4A9C0E0C08C81282F22
:1009000030E03C872B878B859C850097C9F02B8531
:100910003C852130310541F5AAE3B0E0EAE3F0E09F
:100920008081482F8B81282F30E081E090E0022EDB
:1009300002C0880F991F0A94E2F7842B8C9314C08D
:10094000AAE3B0E0EAE3F0E08081482F8B81282F12
:1009500030E081E090E0022E02C0880F991F0A94D7
:10096000E2F7809584238C931982ADC08C81282F67
:1009700030E03A87298789859A850097C9F02985CB
:100980003A852130310541F5A7E3B0E0E7E3F0E037
:100990008081482F8B81282F30E081E090E0022E6B
:1009A00002C0880F991F0A94E2F7842B8C9314C01D
:1009B000A7E3B0E0E7E3F0E08081482F8B81282FA8
:1009C00030E081E090E0022E02C0880F991F0A9467
:1009D000E2F7809584238C93198275C08C81282F2F
:1009E00030E038872F838F8198850097C9F02F8159
:1009F00038852130310541F5A4E3B0E0E4E3F0E0CF
:100A00008081482F8B81282F30E081E090E0022EFA
:100A100002C0880F991F0A94E2F7842B8C9314C0AC
:100A2000A4E3B0E0E4E3F0E08081482F8B81282F3D
:100A300030E081E090E0022E02C0880F991F0A94F6
:100A4000E2F7809584238C9319823DC08C81282FF6
:100A500030E03E832D838D819E810097C9F02D81EA
:100A60003E812130310541F5A1E3B0E0E1E3F0E062
:100A70008081482F8B81282F30E081E090E0022E8A
:100A800002C0880F991F0A94E2F7842B8C9314C03C
:100A9000A1E3B0E0E1E3F0E08081482F8B81282FD3
:100AA00030E081E090E0022E02C0880F991F0A9486
:100AB000E2F7809584238C93198205C081E08983B5
:100AC00002C081E0898389812E960FB6F894DEBF3B
:100AD0000FBECDBFCF91DF910895DF93CF93CDB7F8
:100AE000DEB72E970FB6F894DEBF0FBECDBF8A8358
:100AF0006B834C8381E089838A81843008F014C140
:100B00008B81883008F010C18C81813021F08C817C
:100B1000882309F009C18A81282F30E03E872D877C
:100B20008D859E858130910509F450C02D853E85C7
:100B3000223031052CF48D859E85009771F0F1C02F
:100B40002D853E852230310509F479C08D859E853D
:100B50008330910509F4ACC0E4C08C81282F30E0CB
:100B60003C872B878B859C85009731F02B853C85B6
:100B700021303105B1F028C0ABE3B0E0EBE3F0E0A9
:100B80008081482F8B81282F30E081E090E0022E79
:100B900002C0880F991F0A94E2F7809584238C93F2
:100BA00013C0ABE3B0E0EBE3F0E08081482F8B8132
:100BB000282F30E081E090E0022E02C0880F991FBC
:100BC0000A94E2F7842B8C931982B0C08C81282F71
:100BD00030E03A87298789859A85009731F0298501
:100BE0003A8521303105B1F028C0A8E3B0E0E8E350
:100BF000F0E08081482F8B81282F30E081E090E069
:100C0000022E02C0880F991F0A94E2F78095842370
:100C10008C9313C0A8E3B0E0E8E3F0E08081482FB4
:100C20008B81282F30E081E090E0022E02C0880FF7
:100C3000991F0A94E2F7842B8C93198277C08C81D8
:100C4000282F30E038872F838F819885009731F0E7
:100C50002F81388521303105B1F028C0A5E3B0E0FF
:100C6000E5E3F0E08081482F8B81282F30E081E0A0
:100C700090E0022E02C0880F991F0A94E2F7809537
:100C800084238C9313C0A5E3B0E0E5E3F0E080811A
:100C9000482F8B81282F30E081E090E0022E02C0A7
:100CA000880F991F0A94E2F7842B8C9319823EC017
:100CB0008C81282F30E03E832D838D819E8100978B
:100CC00031F02D813E8121303105B1F028C0A2E301
:100CD000B0E0E2E3F0E08081482F8B81282F30E004
:100CE00081E090E0022E02C0880F991F0A94E2F77B
:100CF000809584238C9313C0A2E3B0E0E2E3F0E09C
:100D00008081482F8B81282F30E081E090E0022EF7
:100D100002C0880F991F0A94E2F7842B8C931982E2
:100D200005C081E0898302C081E0898389812E9694
:100D30000FB6F894DEBF0FBECDBFCF91DF910895FF
:100D4000DF93CF93CDB7DEB727970FB6F894DEBF0A
:100D50000FBECDBF8A836B835D834C8381E0898323
:100D60008A81843008F081C08B81883008F07DC092
:100D70008C819D81009709F478C08A81282F30E00A
:100D80003F832E834E815F814130510561F18E8119
:100D90009F818230910534F42E813F8121153105E8
:100DA00069F060C04E815F814230510589F18E81CA
:100DB0009F818330910509F440C054C0E9E3F0E01D
:100DC0008081282F30E08B81882F90E0A90102C01C
:100DD000559547958A95E2F7CA018170EC81FD81AE
:100DE0008083198244C0E6E3F0E08081282F30E060
:100DF0008B81882F90E0A90102C0559547958A956F
:100E0000E2F7CA018170EC81FD81808319822FC0D5
:100E1000E3E3F0E08081282F30E08B81882F90E0A1
:100E2000A90102C0559547958A95E2F7CA018170DC
:100E3000EC81FD81808319821AC0E0E3F0E08081BB
:100E4000282F30E08B81882F90E0A90102C05595B2
:100E500047958A95E2F7CA018170EC81FD81808314
:100E6000198205C081E0898302C081E0898389817C
:100E700027960FB6F894DEBF0FBECDBFCF91DF919E
:100E80000895DF93CF9300D000D000D0CDB7DEB768
:100E90008A836B834C8381E089838A81843008F064
:100EA000F6C08B81883008F0F2C08C81882321F055
:100EB0008C81813009F0EBC0A0E5B0E0E0E5F0E026
:100EC0008081482F8B81282F30E081E090E002C0A4
:100ED000880F991F2A95E2F7809584238C938A8145
:100EE000282F30E03E832D838D819E8181309105B6
:100EF00009F444C02D813E81223031052CF48D81CE
:100F00009E81009771F0C1C02D813E812230310554
:100F100009F461C08D819E818330910509F488C0F8
:100F2000B4C08C818823A1F4ABE3B0E0EBE3F0E044
:100F30008081482F8B81282F30E081E090E0022EC5
:100F400002C0880F991F0A94E2F7842B8C9314C077
:100F5000ABE3B0E0EBE3F0E08081482F8B81282FFA
:100F600030E081E090E0022E02C0880F991F0A94C1
:100F7000E2F7809584238C93198289C08C81882321
:100F8000A1F4A8E3B0E0E8E3F0E08081482F8B8192
:100F9000282F30E081E090E0022E02C0880F991FD8
:100FA0000A94E2F7842B8C9314C0A8E3B0E0E8E342
:100FB000F0E08081482F8B81282F30E081E090E0A5
:100FC000022E02C0880F991F0A94E2F780958423AD
:100FD0008C9319825CC08C818823A1F4A5E3B0E0D6
:100FE000E5E3F0E08081482F8B81282F30E081E01D
:100FF00090E0022E02C0880F991F0A94E2F7842B1A
:101000008C9314C0A5E3B0E0E5E3F0E08081482FC5
:101010008B81282F30E081E090E0022E02C0880F03
:10102000991F0A94E2F7809584238C9319822FC02C
:101030008C818823A1F4A2E3B0E0E2E3F0E08081B8
:10104000482F8B81282F30E081E090E0022E02C0F3
:10105000880F991F0A94E2F7842B8C9314C0A2E3A3
:10106000B0E0E2E3F0E08081482F8B81282F30E070
:1010700081E090E0022E02C0880F991F0A94E2F7E7
:10108000809584238C93198202C081E089838981B1
:1010900026960FB6F894DEBF0FBECDBFCF91DF917D
:1010A0000895DF93CF9300D000D00F92CDB7DEB775
:1010B0008A836B8381E089838A818430D0F58A8139
:1010C000282F30E03D832C838C819D8181309105D8
:1010D000D9F02C813D81223031052CF48C819D8109
:1010E000009761F023C02C813D812230310591F0C1
:1010F0008C819D818330910599F018C0EAE3F0E07E
:101100008B818083198217C0E7E3F0E08B818083B5
:10111000198211C0E4E3F0E08B81808319820BC057
:10112000E1E3F0E08B818083198205C081E089834F
:1011300002C081E0898389810F900F900F900F90FA
:101140000F90CF91DF910895DF93CF9300D000D01F
:101150000F92CDB7DEB78A836B8381E089838A8162
:101160008430D0F58A81282F30E03D832C838C8118
:101170009D8181309105D9F02C813D81223031054E
:101180002CF48C819D81009761F023C02C813D81DE
:101190002230310591F08C819D818330910599F049
:1011A00018C0EBE3F0E08B818083198217C0E8E37D
:1011B000F0E08B818083198211C0E5E3F0E08B8140
:1011C000808319820BC0E2E3F0E08B818083198277
:1011D00005C081E0898302C081E0898389810F9005
:1011E0000F900F900F900F90CF91DF910895DF93A4
:1011F000CF9300D000D000D0CDB7DEB78A837C83F8
:101200006B8381E089838A81843008F047C08B81B9
:101210009C81009709F442C08A81282F30E03E83E8
:101220002D838D819E8181309105E9F02D813E8154
:10123000223031052CF48D819E81009761F02BC006
:101240002D813E8122303105B1F08D819E81833028
:101250009105C9F020C0E9E3F0E08081EB81FC81D9
:10126000808319821DC0E6E3F0E08081EB81FC8180
:101270008083198215C0E3E3F0E08081EB81FC817B
:10128000808319820DC0E0E3F0E08081EB81FC8176
:101290008083198205C081E0898302C081E089834F
:1012A000898126960FB6F894DEBF0FBECDBFCF91D1
:1012B000DF910895DF93CF9300D00F92CDB7DEB7C3
:1012C00069837A838B8389819A81692F40E00E94A8
:1012D0003E048B81823031F489819A81692F40E00C
:1012E0000E9441070F900F900F90CF91DF910895CA
:1012F000DF93CF9300D000D00F92CDB7DEB76A83D3
:101300007B838C8319828C818823B1F48A819B81B1
:10131000692F40E00E946D058A819B81692F9E01A3
:101320002F5F3F4FA9010E94A00689811D8288235B
:1013300099F581E08D8330C08C81813091F48A8170
:101340009B81692F40E00E946D058A819B81692FF6
:101350009E012F5F3F4FA9010E94A00689818D83C6
:101360001BC08C818230B1F48A819B81692F41E05E
:101370000E946D058A819B81692F9E012F5F3F4FDF
:10138000A9010E94A00689811D82882329F481E099
:101390008D8302C089818D838D810F900F900F9076
:1013A0000F900F90CF91DF910895DF93CF93CDB73A
:1013B000DEB7A3E5B0E0E3E5F0E080818F7B8C93BE
:1013C000A3E5B0E0E3E5F0E08081877F8C93E2E580
:1013D000F0E01082A9E5B0E0E9E5F0E0808181600D
:1013E0008C93A3E5B0E0E3E5F0E08081887F8C9307
:1013F000A3E5B0E0E3E5F0E0808181608C93CF91DC
:10140000DF910895DF93CF93CDB7DEB7AFE4B0E0BF
:10141000EFE4F0E080818E7F8C93AFE4B0E0EFE406
:10142000F0E0808182608C93AEE4B0E0EEE4F0E026
:10143000808188608C93AEE4B0E0EEE4F0E08081DF
:1014400080618C93EAE4F0E080EA9FE091838083FE
:10145000E8E4F0E011821082E6E4F0E08FE39FE13F
:1014600091838083AEE4B0E0EEE4F0E080818064BC
:101470008C93AFE4B0E0EFE4F0E080818F7B8C935D
:10148000AFE4B0E0EFE4F0E0808180688C93AFE4FB
:10149000B0E0EFE4F0E080818F7E8C93AFE4B0E0C9
:1014A000EFE4F0E0808180628C93A9E5B0E0E9E5AB
:1014B000F0E080818B7F8C93A9E5B0E0E9E5F0E076
:1014C00080818F7E8C93A9E5B0E0E9E5F0E0808132
:1014D000877F8C93A9E5B0E0E9E5F0E08081806248
:1014E0008C93AEE4B0E0EEE4F0E08081887F8C93F2
:1014F000AEE4B0E0EEE4F0E0808181608C93CF91C7
:10150000DF910895DF93CF93CDB7DEB7A5E4B0E0C8
:10151000E5E4F0E080818F7B8C93A5E4B0E0E5E426
:10152000F0E0808188608C93E3E4F0E08DE78083D5
:10153000A9E5B0E0E9E5F0E0808180688C93A5E45E
:10154000B0E0E5E4F0E08081887F8C93A5E4B0E032
:10155000E5E4F0E0808183608C93CF91DF91089582
:10156000DF93CF930F92CDB7DEB78983E2E5F0E04A
:10157000898180830F90CF91DF910895DF93CF937E
:1015800000D0CDB7DEB79A838983ECE4F0E089819F
:101590009A81918380830F900F90CF91DF9108956E
:1015A000DF93CF930F92CDB7DEB78983E4E4F0E009
:1015B000898180830F90CF91DF910895DF93CF933E
:1015C0000F92CDB7DEB78983ECE5F0E089818083A7
:1015D0000F90CF91DF910895DF93CF9300D0CDB7D7
:1015E000DEB79A838983EAE4F0E089819A81918366
:1015F00080830F900F90CF91DF910895DF93CF9369
:1016000000D0CDB7DEB79A838983E8E4F0E0898122
:101610009A81918380830F900F90CF91DF910895ED
:10162000DF93CF930F92CDB7DEB78983E3E4F0E089
:10163000898180830F90CF91DF910895DF93CF93BD
:1016400000D0CDB7DEB79A838983E6E4F0E08981E4
:101650009A81918380830F900F90CF91DF910895AD
:10166000DF93CF93CDB7DEB7E2E5F0E08081CF9195
:10167000DF910895DF93CF93CDB7DEB7ECE4F0E0D0
:1016800080819181CF91DF910895DF93CF93CDB782
:10169000DEB7E4E4F0E08081CF91DF910895DF933D
:1016A000CF9300D0CDB7DEB79A838983EAE4F0E028
:1016B00089819A81918380830F900F90CF91DF91E0
:1016C0000895DF93CF93CDB7DEB7AEE4B0E0EEE49C
:1016D000F0E0808180648C93A9E5B0E0E9E5F0E07A
:1016E000808180628C93CF91DF910895DF93CF93B7
:1016F00000D0CDB7DEB78A8319828A81813041F468
:10170000AEE4B0E0EEE4F0E0808180648C930DC044
:101710008A81882341F4AEE4B0E0EEE4F0E0808119
:101720008F7B8C9302C081E0898389810F900F9019
:10173000CF91DF910895DF93CF93CDB7DEB7A9E5C1
:10174000B0E0E9E5F0E0808180628C93CF91DF9199
:101750000895DF93CF93CDB7DEB7A9E5B0E0E9E513
:10176000F0E080818F7D8C93CF91DF910895DF939E
:10177000CF93CDB7DEB7E6E4F0E080819181CF91E1
:10178000DF910895DF93CF93CDB7DEB7A1E4B0E04A
:10179000E1E4F0E08081887F8C93A1E4B0E0E1E4B3
:1017A000F0E0808186608C93CF91DF910895DF9384
:1017B000CF93CDB7DEB7A1E4B0E0E1E4F0E0808103
:1017C00088608C93CF91DF910895DF93CF93CDB74D
:1017D000DEB7A1E4B0E0E1E4F0E0808188618C93C1
:1017E000E1E4F0E01082CF91DF910895DF93CF9391
:1017F00000D000D0CDB7DEB79B838A836C8319827B
:101800008A819B81009769F08C81882F90E0880FF6
:10181000991FFC01E659FF4F8A819B819183808348
:1018200002C081E0898389810F900F900F900F9003
:10183000CF91DF9108951F920F920FB60F9211244E
:101840002F933F934F935F936F937F938F939F93C8
:10185000AF93BF93EF93FF93DF93CF93CDB7DEB7F3
:101860008091800090918100009729F0E0918000A4
:10187000F09181000995CF91DF91FF91EF91BF9198
:10188000AF919F918F917F916F915F914F913F9118
:101890002F910F900FBE0F901F9018951F920F92CF
:1018A0000FB60F9211242F933F934F935F936F9333
:1018B0007F938F939F93AF93BF93EF93FF93DF93A8
:1018C000CF93CDB7DEB780917E0090917F000097D7
:1018D00029F0E0917E00F0917F000995CF91DF9192
:1018E000FF91EF91BF91AF919F918F917F916F91F8
:1018F0005F914F913F912F910F900FBE0F901F90CE
:1019000018951F920F920FB60F9211242F933F93A9
:101910004F935F936F937F938F939F93AF93BF93F7
:10192000EF93FF93DF93CF93CDB7DEB780917C0029
:1019300090917D00009729F0E0917C00F0917D006E
:101940000995CF91DF91FF91EF91BF91AF919F9159
:101950008F917F916F915F914F913F912F910F9058
:101960000FBE0F901F9018951F920F920FB60F92F7
:1019700011242F933F934F935F936F937F938F9394
:101980009F93AF93BF93EF93FF93DF93CF93CDB725
:10199000DEB780917A0090917B00009729F0E0916A
:1019A0007A00F0917B000995CF91DF91FF91EF9143
:1019B000BF91AF919F918F917F916F915F914F9167
:1019C0003F912F910F900FBE0F901F9018951F926F
:1019D0000F920FB60F9211242F933F934F935F9363
:1019E0006F937F938F939F93AF93BF93EF93FF93E7
:1019F000DF93CF93CDB7DEB78091780090917900D7
:101A0000009729F0E0917800F09179000995CF9145
:101A1000DF91FF91EF91BF91AF919F918F917F9156
:101A20006F915F914F913F912F910F900FBE0F904B
:101A30001F9018951F920F920FB60F9211242F939B
:101A40003F934F935F936F937F938F939F93AF9346
:101A5000BF93EF93FF93DF93CF93CDB7DEB7809122
:101A6000760090917700009729F0E0917600F09150
:101A700077000995CF91DF91FF91EF91BF91AF91E1
:101A80009F918F917F916F915F914F913F912F9196
:101A90000F900FBE0F901F9018951F920F920FB6C8
:101AA0000F9211242F933F934F935F936F937F93E4
:101AB0008F939F93AF93BF93EF93FF93DF93CF9356
:101AC000CDB7DEB78091740090917500009729F032
:101AD000E0917400F09175000995CF91DF91FF912D
:101AE000EF91BF91AF919F918F917F916F915F9196
:101AF0004F913F912F910F900FBE0F901F9018950F
:101B00001F920F920FB60F9211242F933F934F9372
:101B10005F936F937F938F939F93AF93BF93EF9355
:101B2000FF93DF93CF93CDB7DEB780917200909192
:101B30007300009729F0E0917200F091730009950D
:101B4000CF91DF91FF91EF91BF91AF919F918F91D5
:101B50007F916F915F914F913F912F910F900FBEA9
:101B60000F901F901895DF93CF93CDB7DEB780917C
:101B70008A00882351F40E94B70B90938E008093C3
:101B80008D0081E080938A0008C00E94B70B90937B
:101B90008C0080938B000E94A90BCF91DF91089558
:101BA000DF93CF93CDB7DEB783E066E040E00E94DD
:101BB0003E0483E065E041E00E943E040E94020A88
:101BC00083EB9DE066E00E94F60B7894FFCFF894DB
:021BD000FFCF45
:00000001FF
